{
    "_format": "hh-sol-artifact-1",
    "contractName": "FontProject",
    "sourceName": "contracts/FontProject.sol",
    "abi": [
        {
            "inputs": [],
            "stateMutability": "nonpayable",
            "type": "constructor"
        },
        {
            "anonymous": false,
            "inputs": [
                {
                    "indexed": false,
                    "internalType": "address",
                    "name": "previousAdmin",
                    "type": "address"
                },
                {
                    "indexed": false,
                    "internalType": "address",
                    "name": "newAdmin",
                    "type": "address"
                }
            ],
            "name": "AdminChanged",
            "type": "event"
        },
        {
            "anonymous": false,
            "inputs": [
                {
                    "indexed": true,
                    "internalType": "address",
                    "name": "beacon",
                    "type": "address"
                }
            ],
            "name": "BeaconUpgraded",
            "type": "event"
        },
        {
            "anonymous": false,
            "inputs": [
                {
                    "indexed": false,
                    "internalType": "bytes32",
                    "name": "id",
                    "type": "bytes32"
                },
                {
                    "indexed": false,
                    "internalType": "string",
                    "name": "metaDataCID",
                    "type": "string"
                },
                {
                    "indexed": false,
                    "internalType": "address",
                    "name": "creatorAddress",
                    "type": "address"
                },
                {
                    "indexed": false,
                    "internalType": "uint256",
                    "name": "perCharacterMintPrice",
                    "type": "uint256"
                },
                {
                    "indexed": false,
                    "internalType": "uint256",
                    "name": "mintLimit",
                    "type": "uint256"
                },
                {
                    "indexed": false,
                    "internalType": "uint256",
                    "name": "launchDateTime",
                    "type": "uint256"
                },
                {
                    "indexed": false,
                    "internalType": "uint256",
                    "name": "createdAt",
                    "type": "uint256"
                }
            ],
            "name": "FontProjectCreated",
            "type": "event"
        },
        {
            "anonymous": false,
            "inputs": [
                {
                    "indexed": false,
                    "internalType": "bytes32",
                    "name": "id",
                    "type": "bytes32"
                },
                {
                    "indexed": false,
                    "internalType": "uint256",
                    "name": "tokenId",
                    "type": "uint256"
                }
            ],
            "name": "FontProjectMinted",
            "type": "event"
        },
        {
            "anonymous": false,
            "inputs": [
                {
                    "indexed": false,
                    "internalType": "uint8",
                    "name": "version",
                    "type": "uint8"
                }
            ],
            "name": "Initialized",
            "type": "event"
        },
        {
            "anonymous": false,
            "inputs": [
                {
                    "indexed": true,
                    "internalType": "address",
                    "name": "previousOwner",
                    "type": "address"
                },
                {
                    "indexed": true,
                    "internalType": "address",
                    "name": "newOwner",
                    "type": "address"
                }
            ],
            "name": "OwnershipTransferred",
            "type": "event"
        },
        {
            "anonymous": false,
            "inputs": [
                {
                    "indexed": true,
                    "internalType": "address",
                    "name": "implementation",
                    "type": "address"
                }
            ],
            "name": "Upgraded",
            "type": "event"
        },
        {
            "anonymous": false,
            "inputs": [
                {
                    "indexed": false,
                    "internalType": "address",
                    "name": "walletAddress",
                    "type": "address"
                },
                {
                    "indexed": false,
                    "internalType": "string",
                    "name": "profileInfoCID",
                    "type": "string"
                },
                {
                    "indexed": false,
                    "internalType": "uint256",
                    "name": "createdAt",
                    "type": "uint256"
                },
                {
                    "indexed": false,
                    "internalType": "uint256",
                    "name": "updatedAt",
                    "type": "uint256"
                },
                {
                    "indexed": false,
                    "internalType": "string",
                    "name": "lensHandle",
                    "type": "string"
                }
            ],
            "name": "UserCreated",
            "type": "event"
        },
        {
            "anonymous": false,
            "inputs": [
                {
                    "indexed": false,
                    "internalType": "address",
                    "name": "walletAddress",
                    "type": "address"
                },
                {
                    "indexed": false,
                    "internalType": "string",
                    "name": "profileInfoCID",
                    "type": "string"
                },
                {
                    "indexed": false,
                    "internalType": "uint256",
                    "name": "createdAt",
                    "type": "uint256"
                },
                {
                    "indexed": false,
                    "internalType": "uint256",
                    "name": "updatedAt",
                    "type": "uint256"
                },
                {
                    "indexed": false,
                    "internalType": "string",
                    "name": "lensHandle",
                    "type": "string"
                }
            ],
            "name": "UserEdited",
            "type": "event"
        },
        {
            "inputs": [
                {
                    "internalType": "bytes32",
                    "name": "fontProjectId",
                    "type": "bytes32"
                },
                {
                    "internalType": "address",
                    "name": "collaborator",
                    "type": "address"
                },
                {
                    "internalType": "string",
                    "name": "deliverablesCID",
                    "type": "string"
                },
                {
                    "internalType": "bytes32",
                    "name": "fontStreamId",
                    "type": "bytes32"
                }
            ],
            "name": "addFontStreamCollaborator",
            "outputs": [],
            "stateMutability": "nonpayable",
            "type": "function"
        },
        {
            "inputs": [
                {
                    "internalType": "address",
                    "name": "",
                    "type": "address"
                }
            ],
            "name": "addressToUser",
            "outputs": [
                {
                    "internalType": "address",
                    "name": "walletAddress",
                    "type": "address"
                },
                {
                    "internalType": "string",
                    "name": "profileInfoCID",
                    "type": "string"
                },
                {
                    "internalType": "uint256",
                    "name": "createdAt",
                    "type": "uint256"
                },
                {
                    "internalType": "uint256",
                    "name": "updatedAt",
                    "type": "uint256"
                },
                {
                    "internalType": "string",
                    "name": "lensHandle",
                    "type": "string"
                }
            ],
            "stateMutability": "view",
            "type": "function"
        },
        {
            "inputs": [
                {
                    "internalType": "uint256",
                    "name": "createdAt",
                    "type": "uint256"
                },
                {
                    "internalType": "uint256",
                    "name": "launchDateTime",
                    "type": "uint256"
                },
                {
                    "internalType": "uint256",
                    "name": "perCharacterMintPrice",
                    "type": "uint256"
                },
                {
                    "internalType": "uint256",
                    "name": "mintLimit",
                    "type": "uint256"
                },
                {
                    "internalType": "address",
                    "name": "distributionSuperToken",
                    "type": "address"
                },
                {
                    "internalType": "string",
                    "name": "metaDataCID",
                    "type": "string"
                },
                {
                    "internalType": "string",
                    "name": "fontFilesCID",
                    "type": "string"
                }
            ],
            "name": "createFontProject",
            "outputs": [],
            "stateMutability": "nonpayable",
            "type": "function"
        },
        {
            "inputs": [
                {
                    "internalType": "string",
                    "name": "lensHandle",
                    "type": "string"
                },
                {
                    "internalType": "string",
                    "name": "profileInfoCID",
                    "type": "string"
                },
                {
                    "internalType": "uint256",
                    "name": "createdAt",
                    "type": "uint256"
                }
            ],
            "name": "createUser",
            "outputs": [],
            "stateMutability": "nonpayable",
            "type": "function"
        },
        {
            "inputs": [
                {
                    "internalType": "bytes32",
                    "name": "fontId",
                    "type": "bytes32"
                }
            ],
            "name": "distributeFontProfit",
            "outputs": [],
            "stateMutability": "nonpayable",
            "type": "function"
        },
        {
            "inputs": [
                {
                    "internalType": "string",
                    "name": "lensHandle",
                    "type": "string"
                },
                {
                    "internalType": "string",
                    "name": "profileInfoCID",
                    "type": "string"
                },
                {
                    "internalType": "uint256",
                    "name": "updatedAt",
                    "type": "uint256"
                }
            ],
            "name": "editUser",
            "outputs": [],
            "stateMutability": "nonpayable",
            "type": "function"
        },
        {
            "inputs": [
                {
                    "internalType": "bytes32",
                    "name": "",
                    "type": "bytes32"
                },
                {
                    "internalType": "uint256",
                    "name": "",
                    "type": "uint256"
                }
            ],
            "name": "fontProjectIdToMints",
            "outputs": [
                {
                    "internalType": "uint256",
                    "name": "",
                    "type": "uint256"
                }
            ],
            "stateMutability": "view",
            "type": "function"
        },
        {
            "inputs": [
                {
                    "internalType": "bytes32",
                    "name": "",
                    "type": "bytes32"
                }
            ],
            "name": "idToFontProject",
            "outputs": [
                {
                    "internalType": "bytes32",
                    "name": "id",
                    "type": "bytes32"
                },
                {
                    "internalType": "address",
                    "name": "creatorAddress",
                    "type": "address"
                },
                {
                    "internalType": "uint256",
                    "name": "perCharacterMintPrice",
                    "type": "uint256"
                },
                {
                    "internalType": "string",
                    "name": "metaDataCID",
                    "type": "string"
                },
                {
                    "internalType": "uint32",
                    "name": "royaltyIDAIndex",
                    "type": "uint32"
                },
                {
                    "internalType": "contract ISuperfluidToken",
                    "name": "idaDistributionToken",
                    "type": "address"
                },
                {
                    "internalType": "string",
                    "name": "fontFilesCID",
                    "type": "string"
                },
                {
                    "internalType": "uint256",
                    "name": "mintLimit",
                    "type": "uint256"
                },
                {
                    "internalType": "uint256",
                    "name": "launchDateTime",
                    "type": "uint256"
                },
                {
                    "internalType": "uint256",
                    "name": "createdAt",
                    "type": "uint256"
                },
                {
                    "internalType": "uint256",
                    "name": "updatedAt",
                    "type": "uint256"
                }
            ],
            "stateMutability": "view",
            "type": "function"
        },
        {
            "inputs": [
                {
                    "internalType": "contract ISuperfluid",
                    "name": "_host",
                    "type": "address"
                },
                {
                    "internalType": "contract IInstantDistributionAgreementV1",
                    "name": "_ida",
                    "type": "address"
                },
                {
                    "internalType": "contract InterPlanetaryFontNFT",
                    "name": "_ipfToken",
                    "type": "address"
                }
            ],
            "name": "initialize",
            "outputs": [],
            "stateMutability": "nonpayable",
            "type": "function"
        },
        {
            "inputs": [],
            "name": "minFontProject",
            "outputs": [],
            "stateMutability": "payable",
            "type": "function"
        },
        {
            "inputs": [],
            "name": "owner",
            "outputs": [
                {
                    "internalType": "address",
                    "name": "",
                    "type": "address"
                }
            ],
            "stateMutability": "view",
            "type": "function"
        },
        {
            "inputs": [],
            "name": "proxiableUUID",
            "outputs": [
                {
                    "internalType": "bytes32",
                    "name": "",
                    "type": "bytes32"
                }
            ],
            "stateMutability": "view",
            "type": "function"
        },
        {
            "inputs": [],
            "name": "renounceOwnership",
            "outputs": [],
            "stateMutability": "nonpayable",
            "type": "function"
        },
        {
            "inputs": [
                {
                    "internalType": "address",
                    "name": "newOwner",
                    "type": "address"
                }
            ],
            "name": "transferOwnership",
            "outputs": [],
            "stateMutability": "nonpayable",
            "type": "function"
        },
        {
            "inputs": [
                {
                    "internalType": "address",
                    "name": "newImplementation",
                    "type": "address"
                }
            ],
            "name": "upgradeTo",
            "outputs": [],
            "stateMutability": "nonpayable",
            "type": "function"
        },
        {
            "inputs": [
                {
                    "internalType": "address",
                    "name": "newImplementation",
                    "type": "address"
                },
                {
                    "internalType": "bytes",
                    "name": "data",
                    "type": "bytes"
                }
            ],
            "name": "upgradeToAndCall",
            "outputs": [],
            "stateMutability": "payable",
            "type": "function"
        }
    ],
    "bytecode": "0x60a06040523073ffffffffffffffffffffffffffffffffffffffff1660809073ffffffffffffffffffffffffffffffffffffffff168152503480156200004457600080fd5b50620000556200005b60201b60201c565b62000206565b600060019054906101000a900460ff1615620000ae576040517f08c379a0000000000000000000000000000000000000000000000000000000008152600401620000a590620001a9565b60405180910390fd5b60ff801660008054906101000a900460ff1660ff161015620001205760ff6000806101000a81548160ff021916908360ff1602179055507f7f26b83ff96e1f2b6a682f133852f6798a09c465da95921460cefb384740249860ff604051620001179190620001e9565b60405180910390a15b565b600082825260208201905092915050565b7f496e697469616c697a61626c653a20636f6e747261637420697320696e69746960008201527f616c697a696e6700000000000000000000000000000000000000000000000000602082015250565b60006200019160278362000122565b91506200019e8262000133565b604082019050919050565b60006020820190508181036000830152620001c48162000182565b9050919050565b600060ff82169050919050565b620001e381620001cb565b82525050565b6000602082019050620002006000830184620001d8565b92915050565b608051613d2c6200023e6000396000818161080e0152818161089c01528181610b5001528181610bde0152610c910152613d2c6000f3fe6080604052600436106100f35760003560e01c80638da5cb5b1161008a578063d2cddda611610059578063d2cddda6146102dc578063e3020a9514610305578063edf538861461032e578063f2fde38b1461036f576100f3565b80638da5cb5b14610255578063b91ecb6d14610280578063ba1a791e146102a9578063c0c53b8b146102b3576100f3565b80634f6210ca116100c65780634f6210ca146101ad57806352d1902d146101d6578063657fc0f114610201578063715018a61461023e576100f3565b806309e0c0ff146100f85780633659cfe614610121578063473895b21461014a5780634f1ef28614610191575b600080fd5b34801561010457600080fd5b5061011f600480360381019061011a919061247d565b610398565b005b34801561012d57600080fd5b5061014860048036038101906101439190612570565b61080c565b005b34801561015657600080fd5b50610171600480360381019061016c91906125d3565b610994565b6040516101889b9a9998979695949392919061273b565b60405180910390f35b6101ab60048036038101906101a69190612924565b610b4e565b005b3480156101b957600080fd5b506101d460048036038101906101cf91906125d3565b610c8a565b005b3480156101e257600080fd5b506101eb610c8d565b6040516101f89190612980565b60405180910390f35b34801561020d57600080fd5b506102286004803603810190610223919061299b565b610d46565b60405161023591906129db565b60405180910390f35b34801561024a57600080fd5b50610253610d77565b005b34801561026157600080fd5b5061026a610d8b565b60405161027791906129f6565b60405180910390f35b34801561028c57600080fd5b506102a760048036038101906102a29190612a11565b610db5565b005b6102b161112d565b005b3480156102bf57600080fd5b506102da60048036038101906102d59190612bad565b61112f565b005b3480156102e857600080fd5b5061030360048036038101906102fe919061247d565b6113af565b005b34801561031157600080fd5b5061032c60048036038101906103279190612c00565b61165e565b005b34801561033a57600080fd5b5061035560048036038101906103509190612570565b611665565b604051610366959493929190612c88565b60405180910390f35b34801561037b57600080fd5b5061039660048036038101906103919190612570565b6117cb565b005b600060ca60003373ffffffffffffffffffffffffffffffffffffffff1673ffffffffffffffffffffffffffffffffffffffff168152602001908152602001600020600201540361041d576040517f08c379a000000000000000000000000000000000000000000000000000000000815260040161041490612d5b565b60405180910390fd5b600060ca60003373ffffffffffffffffffffffffffffffffffffffff1673ffffffffffffffffffffffffffffffffffffffff1681526020019081526020016000206040518060a00160405290816000820160009054906101000a900473ffffffffffffffffffffffffffffffffffffffff1673ffffffffffffffffffffffffffffffffffffffff1673ffffffffffffffffffffffffffffffffffffffff1681526020016001820180546104cf90612daa565b80601f01602080910402602001604051908101604052809291908181526020018280546104fb90612daa565b80156105485780601f1061051d57610100808354040283529160200191610548565b820191906000526020600020905b81548152906001019060200180831161052b57829003601f168201915b50505050508152602001600282015481526020016003820154815260200160048201805461057590612daa565b80601f01602080910402602001604051908101604052809291908181526020018280546105a190612daa565b80156105ee5780601f106105c3576101008083540402835291602001916105ee565b820191906000526020600020905b8154815290600101906020018083116105d157829003601f168201915b505050505081525050905060006040518060a001604052803373ffffffffffffffffffffffffffffffffffffffff168152602001600087879050146106775786868080601f016020809104026020016040519081016040528093929190818152602001838380828437600081840152601f19601f8201169050808301925050505050505061067d565b83602001515b815260200183604001518152602001848152602001600089899050146106e75788888080601f016020809104026020016040519081016040528093929190818152602001838380828437600081840152601f19601f820116905080830192505050505050506106ed565b83608001515b81525090508060ca60003373ffffffffffffffffffffffffffffffffffffffff1673ffffffffffffffffffffffffffffffffffffffff16815260200190815260200160002060008201518160000160006101000a81548173ffffffffffffffffffffffffffffffffffffffff021916908373ffffffffffffffffffffffffffffffffffffffff160217905550602082015181600101908161078e9190612f7d565b50604082015181600201556060820151816003015560808201518160040190816107b89190612f7d565b509050507f47c66ee0791663c0078214c1283ec590457ce2b7975edf9d897260c0b721a13f3386868560400151878c8c6040516107fb979695949392919061307c565b60405180910390a150505050505050565b7f000000000000000000000000000000000000000000000000000000000000000073ffffffffffffffffffffffffffffffffffffffff163073ffffffffffffffffffffffffffffffffffffffff160361089a576040517f08c379a000000000000000000000000000000000000000000000000000000000815260040161089190613153565b60405180910390fd5b7f000000000000000000000000000000000000000000000000000000000000000073ffffffffffffffffffffffffffffffffffffffff166108d961184e565b73ffffffffffffffffffffffffffffffffffffffff161461092f576040517f08c379a0000000000000000000000000000000000000000000000000000000008152600401610926906131e5565b60405180910390fd5b610938816118a5565b61099181600067ffffffffffffffff811115610957576109566127f9565b5b6040519080825280601f01601f1916602001820160405280156109895781602001600182028036833780820191505090505b5060006118b0565b50565b60cb6020528060005260406000206000915090508060000154908060010160009054906101000a900473ffffffffffffffffffffffffffffffffffffffff16908060020154908060030180546109e990612daa565b80601f0160208091040260200160405190810160405280929190818152602001828054610a1590612daa565b8015610a625780601f10610a3757610100808354040283529160200191610a62565b820191906000526020600020905b815481529060010190602001808311610a4557829003601f168201915b5050505050908060040160009054906101000a900463ffffffff16908060040160049054906101000a900473ffffffffffffffffffffffffffffffffffffffff1690806005018054610ab390612daa565b80601f0160208091040260200160405190810160405280929190818152602001828054610adf90612daa565b8015610b2c5780601f10610b0157610100808354040283529160200191610b2c565b820191906000526020600020905b815481529060010190602001808311610b0f57829003601f168201915b505050505090806006015490806007015490806008015490806009015490508b565b7f000000000000000000000000000000000000000000000000000000000000000073ffffffffffffffffffffffffffffffffffffffff163073ffffffffffffffffffffffffffffffffffffffff1603610bdc576040517f08c379a0000000000000000000000000000000000000000000000000000000008152600401610bd390613153565b60405180910390fd5b7f000000000000000000000000000000000000000000000000000000000000000073ffffffffffffffffffffffffffffffffffffffff16610c1b61184e565b73ffffffffffffffffffffffffffffffffffffffff1614610c71576040517f08c379a0000000000000000000000000000000000000000000000000000000008152600401610c68906131e5565b60405180910390fd5b610c7a826118a5565b610c86828260016118b0565b5050565b50565b60007f000000000000000000000000000000000000000000000000000000000000000073ffffffffffffffffffffffffffffffffffffffff163073ffffffffffffffffffffffffffffffffffffffff1614610d1d576040517f08c379a0000000000000000000000000000000000000000000000000000000008152600401610d1490613277565b60405180910390fd5b7f360894a13ba1a3210667c828492db98dca3e2076cc3735a920a3ca505d382bbc60001b905090565b60cc6020528160005260406000208181548110610d6257600080fd5b90600052602060002001600091509150505481565b610d7f611a1e565b610d896000611a9c565b565b6000603360009054906101000a900473ffffffffffffffffffffffffffffffffffffffff16905090565b600033308b8b8b604051602001610dd0959493929190613300565b604051602081830303815290604052805190602001209050600060cb60008381526020019081526020016000206008015414610e41576040517f08c379a0000000000000000000000000000000000000000000000000000000008152600401610e38906133ab565b60405180910390fd5b600160c960149054906101000a900463ffffffff16610e6091906133fa565b60c960146101000a81548163ffffffff021916908363ffffffff16021790555060006040518061016001604052808381526020013373ffffffffffffffffffffffffffffffffffffffff1681526020018a815260200187878080601f016020809104026020016040519081016040528093929190818152602001838380828437600081840152601f19601f82011690508083019250505050505050815260200160c960149054906101000a900463ffffffff1663ffffffff1681526020018873ffffffffffffffffffffffffffffffffffffffff16815260200185858080601f016020809104026020016040519081016040528093929190818152602001838380828437600081840152601f19601f8201169050808301925050505050505081526020018981526020018b81526020018c81526020018c81525090508060cb60008481526020019081526020016000206000820151816000015560208201518160010160006101000a81548173ffffffffffffffffffffffffffffffffffffffff021916908373ffffffffffffffffffffffffffffffffffffffff1602179055506040820151816002015560608201518160030190816110209190612f7d565b5060808201518160040160006101000a81548163ffffffff021916908363ffffffff16021790555060a08201518160040160046101000a81548173ffffffffffffffffffffffffffffffffffffffff021916908373ffffffffffffffffffffffffffffffffffffffff16021790555060c08201518160050190816110a49190612f7d565b5060e082015181600601556101008201518160070155610120820151816008015561014082015181600901559050506110f18160a00151826080015160cd611b629092919063ffffffff16565b6111178160a00151826080015133606460ff1660cd611bc090949392919063ffffffff16565b61112081611c22565b5050505050505050505050565b565b60008060019054906101000a900460ff161590508080156111605750600160008054906101000a900460ff1660ff16105b8061118d575061116f30611c86565b15801561118c5750600160008054906101000a900460ff1660ff16145b5b6111cc576040517f08c379a00000000000000000000000000000000000000000000000000000000081526004016111c3906134a4565b60405180910390fd5b60016000806101000a81548160ff021916908360ff1602179055508015611209576001600060016101000a81548160ff0219169083151502179055505b611211611ca9565b611219611d02565b600060c960146101000a81548163ffffffff021916908363ffffffff1602179055508160c960006101000a81548173ffffffffffffffffffffffffffffffffffffffff021916908373ffffffffffffffffffffffffffffffffffffffff16021790555060405180604001604052808573ffffffffffffffffffffffffffffffffffffffff1681526020018473ffffffffffffffffffffffffffffffffffffffff1681525060cd60008201518160000160006101000a81548173ffffffffffffffffffffffffffffffffffffffff021916908373ffffffffffffffffffffffffffffffffffffffff16021790555060208201518160010160006101000a81548173ffffffffffffffffffffffffffffffffffffffff021916908373ffffffffffffffffffffffffffffffffffffffff16021790555090505080156113a95760008060016101000a81548160ff0219169083151502179055507f7f26b83ff96e1f2b6a682f133852f6798a09c465da95921460cefb384740249860016040516113a0919061350c565b60405180910390a15b50505050565b600073ffffffffffffffffffffffffffffffffffffffff1660ca60003373ffffffffffffffffffffffffffffffffffffffff1673ffffffffffffffffffffffffffffffffffffffff16815260200190815260200160002060000160009054906101000a900473ffffffffffffffffffffffffffffffffffffffff1673ffffffffffffffffffffffffffffffffffffffff1614611480576040517f08c379a000000000000000000000000000000000000000000000000000000000815260040161147790613573565b60405180910390fd5b60006040518060a001604052803373ffffffffffffffffffffffffffffffffffffffff16815260200185858080601f016020809104026020016040519081016040528093929190818152602001838380828437600081840152601f19601f82011690508083019250505050505050815260200183815260200183815260200187878080601f016020809104026020016040519081016040528093929190818152602001838380828437600081840152601f19601f8201169050808301925050505050505081525090508060ca60003373ffffffffffffffffffffffffffffffffffffffff1673ffffffffffffffffffffffffffffffffffffffff16815260200190815260200160002060008201518160000160006101000a81548173ffffffffffffffffffffffffffffffffffffffff021916908373ffffffffffffffffffffffffffffffffffffffff16021790555060208201518160010190816115e59190612f7d565b506040820151816002015560608201518160030155608082015181600401908161160f9190612f7d565b509050507f40d89a11452d8ce4ae18585fec0247a092090ffe984c999b23e4ca7c11d2f5d933858585868b8b60405161164e979695949392919061307c565b60405180910390a1505050505050565b5050505050565b60ca6020528060005260406000206000915090508060000160009054906101000a900473ffffffffffffffffffffffffffffffffffffffff16908060010180546116ae90612daa565b80601f01602080910402602001604051908101604052809291908181526020018280546116da90612daa565b80156117275780601f106116fc57610100808354040283529160200191611727565b820191906000526020600020905b81548152906001019060200180831161170a57829003601f168201915b50505050509080600201549080600301549080600401805461174890612daa565b80601f016020809104026020016040519081016040528092919081815260200182805461177490612daa565b80156117c15780601f10611796576101008083540402835291602001916117c1565b820191906000526020600020905b8154815290600101906020018083116117a457829003601f168201915b5050505050905085565b6117d3611a1e565b600073ffffffffffffffffffffffffffffffffffffffff168173ffffffffffffffffffffffffffffffffffffffff1603611842576040517f08c379a000000000000000000000000000000000000000000000000000000000815260040161183990613605565b60405180910390fd5b61184b81611a9c565b50565b600061187c7f360894a13ba1a3210667c828492db98dca3e2076cc3735a920a3ca505d382bbc60001b611d53565b60000160009054906101000a900473ffffffffffffffffffffffffffffffffffffffff16905090565b6118ad611a1e565b50565b6118dc7f4910fdfa16fed3260ed0e7147f7cc6da11a60208b5b9406d12a635614ffd914360001b611d5d565b60000160009054906101000a900460ff1615611900576118fb83611d67565b611a19565b8273ffffffffffffffffffffffffffffffffffffffff166352d1902d6040518163ffffffff1660e01b8152600401602060405180830381865afa92505050801561196857506040513d601f19601f82011682018060405250810190611965919061363a565b60015b6119a7576040517f08c379a000000000000000000000000000000000000000000000000000000000815260040161199e906136d9565b60405180910390fd5b7f360894a13ba1a3210667c828492db98dca3e2076cc3735a920a3ca505d382bbc60001b8114611a0c576040517f08c379a0000000000000000000000000000000000000000000000000000000008152600401611a039061376b565b60405180910390fd5b50611a18838383611e20565b5b505050565b611a26611e4c565b73ffffffffffffffffffffffffffffffffffffffff16611a44610d8b565b73ffffffffffffffffffffffffffffffffffffffff1614611a9a576040517f08c379a0000000000000000000000000000000000000000000000000000000008152600401611a91906137d7565b60405180910390fd5b565b6000603360009054906101000a900473ffffffffffffffffffffffffffffffffffffffff16905081603360006101000a81548173ffffffffffffffffffffffffffffffffffffffff021916908373ffffffffffffffffffffffffffffffffffffffff1602179055508173ffffffffffffffffffffffffffffffffffffffff168173ffffffffffffffffffffffffffffffffffffffff167f8be0079c531659141344cd1fd0a4f28419497f9722a3daafe3b4186f6b6457e060405160405180910390a35050565b611bbb838383600067ffffffffffffffff811115611b8357611b826127f9565b5b6040519080825280601f01601f191660200182016040528015611bb55781602001600182028036833780820191505090505b50611e54565b505050565b611c1b8585858585600067ffffffffffffffff811115611be357611be26127f9565b5b6040519080825280601f01601f191660200182016040528015611c155781602001600182028036833780820191505090505b5061200b565b5050505050565b7f6ded40a98fefce321598239a8eb15f9b3846ba525e8925be7d1ec8afa0fcba9b81600001518260600151836020015184604001518560e00151866101000151876101200151604051611c7b97969594939291906137f7565b60405180910390a150565b6000808273ffffffffffffffffffffffffffffffffffffffff163b119050919050565b600060019054906101000a900460ff16611cf8576040517f08c379a0000000000000000000000000000000000000000000000000000000008152600401611cef906138df565b60405180910390fd5b611d006121c8565b565b600060019054906101000a900460ff16611d51576040517f08c379a0000000000000000000000000000000000000000000000000000000008152600401611d48906138df565b60405180910390fd5b565b6000819050919050565b6000819050919050565b611d7081611c86565b611daf576040517f08c379a0000000000000000000000000000000000000000000000000000000008152600401611da690613971565b60405180910390fd5b80611ddc7f360894a13ba1a3210667c828492db98dca3e2076cc3735a920a3ca505d382bbc60001b611d53565b60000160006101000a81548173ffffffffffffffffffffffffffffffffffffffff021916908373ffffffffffffffffffffffffffffffffffffffff16021790555050565b611e2983612229565b600082511180611e365750805b15611e4757611e458383612278565b505b505050565b600033905090565b8360000160009054906101000a900473ffffffffffffffffffffffffffffffffffffffff1673ffffffffffffffffffffffffffffffffffffffff166339255d5b8560010160009054906101000a900473ffffffffffffffffffffffffffffffffffffffff168660010160009054906101000a900473ffffffffffffffffffffffffffffffffffffffff1673ffffffffffffffffffffffffffffffffffffffff1663d787840a8787600067ffffffffffffffff811115611f1657611f156127f9565b5b6040519080825280601f01601f191660200182016040528015611f485781602001600182028036833780820191505090505b50604051602401611f5b939291906139e6565b604051602081830303815290604052915060e01b6020820180517bffffffffffffffffffffffffffffffffffffffffffffffffffffffff8381831617835250505050846040518463ffffffff1660e01b8152600401611fbc93929190613a45565b6000604051808303816000875af1158015611fdb573d6000803e3d6000fd5b505050506040513d6000823e3d601f19601f820116820180604052508101906120049190613afa565b5050505050565b8560000160009054906101000a900473ffffffffffffffffffffffffffffffffffffffff1673ffffffffffffffffffffffffffffffffffffffff166339255d5b8760010160009054906101000a900473ffffffffffffffffffffffffffffffffffffffff168860010160009054906101000a900473ffffffffffffffffffffffffffffffffffffffff1673ffffffffffffffffffffffffffffffffffffffff1663232d2b5889898989600067ffffffffffffffff8111156120cf576120ce6127f9565b5b6040519080825280601f01601f1916602001820160405280156121015781602001600182028036833780820191505090505b50604051602401612116959493929190613b6e565b604051602081830303815290604052915060e01b6020820180517bffffffffffffffffffffffffffffffffffffffffffffffffffffffff8381831617835250505050846040518463ffffffff1660e01b815260040161217793929190613a45565b6000604051808303816000875af1158015612196573d6000803e3d6000fd5b505050506040513d6000823e3d601f19601f820116820180604052508101906121bf9190613afa565b50505050505050565b600060019054906101000a900460ff16612217576040517f08c379a000000000000000000000000000000000000000000000000000000000815260040161220e906138df565b60405180910390fd5b612227612222611e4c565b611a9c565b565b61223281611d67565b8073ffffffffffffffffffffffffffffffffffffffff167fbc7cd75a20ee27fd9adebab32041f755214dbc6bffa90cc0225b39da2e5c2d3b60405160405180910390a250565b606061228383611c86565b6122c2576040517f08c379a00000000000000000000000000000000000000000000000000000000081526004016122b990613c3a565b60405180910390fd5b6000808473ffffffffffffffffffffffffffffffffffffffff16846040516122ea9190613c96565b600060405180830381855af49150503d8060008114612325576040519150601f19603f3d011682016040523d82523d6000602084013e61232a565b606091505b50915091506123528282604051806060016040528060278152602001613cd06027913961235c565b9250505092915050565b6060831561236c57829050612377565b612376838361237e565b5b9392505050565b6000825111156123915781518083602001fd5b806040517f08c379a00000000000000000000000000000000000000000000000000000000081526004016123c59190613cad565b60405180910390fd5b6000604051905090565b600080fd5b600080fd5b600080fd5b600080fd5b600080fd5b60008083601f840112612407576124066123e2565b5b8235905067ffffffffffffffff811115612424576124236123e7565b5b6020830191508360018202830111156124405761243f6123ec565b5b9250929050565b6000819050919050565b61245a81612447565b811461246557600080fd5b50565b60008135905061247781612451565b92915050565b600080600080600060608688031215612499576124986123d8565b5b600086013567ffffffffffffffff8111156124b7576124b66123dd565b5b6124c3888289016123f1565b9550955050602086013567ffffffffffffffff8111156124e6576124e56123dd565b5b6124f2888289016123f1565b9350935050604061250588828901612468565b9150509295509295909350565b600073ffffffffffffffffffffffffffffffffffffffff82169050919050565b600061253d82612512565b9050919050565b61254d81612532565b811461255857600080fd5b50565b60008135905061256a81612544565b92915050565b600060208284031215612586576125856123d8565b5b60006125948482850161255b565b91505092915050565b6000819050919050565b6125b08161259d565b81146125bb57600080fd5b50565b6000813590506125cd816125a7565b92915050565b6000602082840312156125e9576125e86123d8565b5b60006125f7848285016125be565b91505092915050565b6126098161259d565b82525050565b61261881612532565b82525050565b61262781612447565b82525050565b600081519050919050565b600082825260208201905092915050565b60005b8381101561266757808201518184015260208101905061264c565b60008484015250505050565b6000601f19601f8301169050919050565b600061268f8261262d565b6126998185612638565b93506126a9818560208601612649565b6126b281612673565b840191505092915050565b600063ffffffff82169050919050565b6126d6816126bd565b82525050565b6000819050919050565b60006127016126fc6126f784612512565b6126dc565b612512565b9050919050565b6000612713826126e6565b9050919050565b600061272582612708565b9050919050565b6127358161271a565b82525050565b600061016082019050612751600083018e612600565b61275e602083018d61260f565b61276b604083018c61261e565b818103606083015261277d818b612684565b905061278c608083018a6126cd565b61279960a083018961272c565b81810360c08301526127ab8188612684565b90506127ba60e083018761261e565b6127c861010083018661261e565b6127d661012083018561261e565b6127e461014083018461261e565b9c9b505050505050505050505050565b600080fd5b7f4e487b7100000000000000000000000000000000000000000000000000000000600052604160045260246000fd5b61283182612673565b810181811067ffffffffffffffff821117156128505761284f6127f9565b5b80604052505050565b60006128636123ce565b905061286f8282612828565b919050565b600067ffffffffffffffff82111561288f5761288e6127f9565b5b61289882612673565b9050602081019050919050565b82818337600083830152505050565b60006128c76128c284612874565b612859565b9050828152602081018484840111156128e3576128e26127f4565b5b6128ee8482856128a5565b509392505050565b600082601f83011261290b5761290a6123e2565b5b813561291b8482602086016128b4565b91505092915050565b6000806040838503121561293b5761293a6123d8565b5b60006129498582860161255b565b925050602083013567ffffffffffffffff81111561296a576129696123dd565b5b612976858286016128f6565b9150509250929050565b60006020820190506129956000830184612600565b92915050565b600080604083850312156129b2576129b16123d8565b5b60006129c0858286016125be565b92505060206129d185828601612468565b9150509250929050565b60006020820190506129f0600083018461261e565b92915050565b6000602082019050612a0b600083018461260f565b92915050565b600080600080600080600080600060e08a8c031215612a3357612a326123d8565b5b6000612a418c828d01612468565b9950506020612a528c828d01612468565b9850506040612a638c828d01612468565b9750506060612a748c828d01612468565b9650506080612a858c828d0161255b565b95505060a08a013567ffffffffffffffff811115612aa657612aa56123dd565b5b612ab28c828d016123f1565b945094505060c08a013567ffffffffffffffff811115612ad557612ad46123dd565b5b612ae18c828d016123f1565b92509250509295985092959850929598565b6000612afe82612532565b9050919050565b612b0e81612af3565b8114612b1957600080fd5b50565b600081359050612b2b81612b05565b92915050565b6000612b3c82612532565b9050919050565b612b4c81612b31565b8114612b5757600080fd5b50565b600081359050612b6981612b43565b92915050565b6000612b7a82612532565b9050919050565b612b8a81612b6f565b8114612b9557600080fd5b50565b600081359050612ba781612b81565b92915050565b600080600060608486031215612bc657612bc56123d8565b5b6000612bd486828701612b1c565b9350506020612be586828701612b5a565b9250506040612bf686828701612b98565b9150509250925092565b600080600080600060808688031215612c1c57612c1b6123d8565b5b6000612c2a888289016125be565b9550506020612c3b8882890161255b565b945050604086013567ffffffffffffffff811115612c5c57612c5b6123dd565b5b612c68888289016123f1565b93509350506060612c7b888289016125be565b9150509295509295909350565b600060a082019050612c9d600083018861260f565b8181036020830152612caf8187612684565b9050612cbe604083018661261e565b612ccb606083018561261e565b8181036080830152612cdd8184612684565b90509695505050505050565b7f5553455220444f4553204e4f542045584953542c20504c45415345204649525360008201527f542043524541544520412055534552205553494e472063726561746555736572602082015250565b6000612d45604083612638565b9150612d5082612ce9565b604082019050919050565b60006020820190508181036000830152612d7481612d38565b9050919050565b7f4e487b7100000000000000000000000000000000000000000000000000000000600052602260045260246000fd5b60006002820490506001821680612dc257607f821691505b602082108103612dd557612dd4612d7b565b5b50919050565b60008190508160005260206000209050919050565b60006020601f8301049050919050565b600082821b905092915050565b600060088302612e3d7fffffffffffffffffffffffffffffffffffffffffffffffffffffffffffffffff82612e00565b612e478683612e00565b95508019841693508086168417925050509392505050565b6000612e7a612e75612e7084612447565b6126dc565b612447565b9050919050565b6000819050919050565b612e9483612e5f565b612ea8612ea082612e81565b848454612e0d565b825550505050565b600090565b612ebd612eb0565b612ec8818484612e8b565b505050565b5b81811015612eec57612ee1600082612eb5565b600181019050612ece565b5050565b601f821115612f3157612f0281612ddb565b612f0b84612df0565b81016020851015612f1a578190505b612f2e612f2685612df0565b830182612ecd565b50505b505050565b600082821c905092915050565b6000612f5460001984600802612f36565b1980831691505092915050565b6000612f6d8383612f43565b9150826002028217905092915050565b612f868261262d565b67ffffffffffffffff811115612f9f57612f9e6127f9565b5b612fa98254612daa565b612fb4828285612ef0565b600060209050601f831160018114612fe75760008415612fd5578287015190505b612fdf8582612f61565b865550613047565b601f198416612ff586612ddb565b60005b8281101561301d57848901518255600182019150602085019450602081019050612ff8565b8683101561303a5784890151613036601f891682612f43565b8355505b6001600288020188555050505b505050505050565b600061305b8385612638565b93506130688385846128a5565b61307183612673565b840190509392505050565b600060a082019050613091600083018a61260f565b81810360208301526130a481888a61304f565b90506130b3604083018761261e565b6130c0606083018661261e565b81810360808301526130d381848661304f565b905098975050505050505050565b7f46756e6374696f6e206d7573742062652063616c6c6564207468726f7567682060008201527f64656c656761746563616c6c0000000000000000000000000000000000000000602082015250565b600061313d602c83612638565b9150613148826130e1565b604082019050919050565b6000602082019050818103600083015261316c81613130565b9050919050565b7f46756e6374696f6e206d7573742062652063616c6c6564207468726f7567682060008201527f6163746976652070726f78790000000000000000000000000000000000000000602082015250565b60006131cf602c83612638565b91506131da82613173565b604082019050919050565b600060208201905081810360008301526131fe816131c2565b9050919050565b7f555550535570677261646561626c653a206d757374206e6f742062652063616c60008201527f6c6564207468726f7567682064656c656761746563616c6c0000000000000000602082015250565b6000613261603883612638565b915061326c82613205565b604082019050919050565b6000602082019050818103600083015261329081613254565b9050919050565b60008160601b9050919050565b60006132af82613297565b9050919050565b60006132c1826132a4565b9050919050565b6132d96132d482612532565b6132b6565b82525050565b6000819050919050565b6132fa6132f582612447565b6132df565b82525050565b600061330c82886132c8565b60148201915061331c82876132c8565b60148201915061332c82866132e9565b60208201915061333c82856132e9565b60208201915061334c82846132e9565b6020820191508190509695505050505050565b7f464f4e5420495320414c52454144592052454749535445524544000000000000600082015250565b6000613395601a83612638565b91506133a08261335f565b602082019050919050565b600060208201905081810360008301526133c481613388565b9050919050565b7f4e487b7100000000000000000000000000000000000000000000000000000000600052601160045260246000fd5b6000613405826126bd565b9150613410836126bd565b9250828201905063ffffffff81111561342c5761342b6133cb565b5b92915050565b7f496e697469616c697a61626c653a20636f6e747261637420697320616c72656160008201527f647920696e697469616c697a6564000000000000000000000000000000000000602082015250565b600061348e602e83612638565b915061349982613432565b604082019050919050565b600060208201905081810360008301526134bd81613481565b9050919050565b6000819050919050565b600060ff82169050919050565b60006134f66134f16134ec846134c4565b6126dc565b6134ce565b9050919050565b613506816134db565b82525050565b600060208201905061352160008301846134fd565b92915050565b7f5553455220495320414c52454144592052454749535445524544000000000000600082015250565b600061355d601a83612638565b915061356882613527565b602082019050919050565b6000602082019050818103600083015261358c81613550565b9050919050565b7f4f776e61626c653a206e6577206f776e657220697320746865207a65726f206160008201527f6464726573730000000000000000000000000000000000000000000000000000602082015250565b60006135ef602683612638565b91506135fa82613593565b604082019050919050565b6000602082019050818103600083015261361e816135e2565b9050919050565b600081519050613634816125a7565b92915050565b6000602082840312156136505761364f6123d8565b5b600061365e84828501613625565b91505092915050565b7f45524331393637557067726164653a206e657720696d706c656d656e7461746960008201527f6f6e206973206e6f742055555053000000000000000000000000000000000000602082015250565b60006136c3602e83612638565b91506136ce82613667565b604082019050919050565b600060208201905081810360008301526136f2816136b6565b9050919050565b7f45524331393637557067726164653a20756e737570706f727465642070726f7860008201527f6961626c65555549440000000000000000000000000000000000000000000000602082015250565b6000613755602983612638565b9150613760826136f9565b604082019050919050565b6000602082019050818103600083015261378481613748565b9050919050565b7f4f776e61626c653a2063616c6c6572206973206e6f7420746865206f776e6572600082015250565b60006137c1602083612638565b91506137cc8261378b565b602082019050919050565b600060208201905081810360008301526137f0816137b4565b9050919050565b600060e08201905061380c600083018a612600565b818103602083015261381e8189612684565b905061382d604083018861260f565b61383a606083018761261e565b613847608083018661261e565b61385460a083018561261e565b61386160c083018461261e565b98975050505050505050565b7f496e697469616c697a61626c653a20636f6e7472616374206973206e6f74206960008201527f6e697469616c697a696e67000000000000000000000000000000000000000000602082015250565b60006138c9602b83612638565b91506138d48261386d565b604082019050919050565b600060208201905081810360008301526138f8816138bc565b9050919050565b7f455243313936373a206e657720696d706c656d656e746174696f6e206973206e60008201527f6f74206120636f6e747261637400000000000000000000000000000000000000602082015250565b600061395b602d83612638565b9150613966826138ff565b604082019050919050565b6000602082019050818103600083015261398a8161394e565b9050919050565b600081519050919050565b600082825260208201905092915050565b60006139b882613991565b6139c2818561399c565b93506139d2818560208601612649565b6139db81612673565b840191505092915050565b60006060820190506139fb600083018661272c565b613a0860208301856126cd565b8181036040830152613a1a81846139ad565b9050949350505050565b6000613a2f82612708565b9050919050565b613a3f81613a24565b82525050565b6000606082019050613a5a6000830186613a36565b8181036020830152613a6c81856139ad565b90508181036040830152613a8081846139ad565b9050949350505050565b6000613a9d613a9884612874565b612859565b905082815260208101848484011115613ab957613ab86127f4565b5b613ac4848285612649565b509392505050565b600082601f830112613ae157613ae06123e2565b5b8151613af1848260208601613a8a565b91505092915050565b600060208284031215613b1057613b0f6123d8565b5b600082015167ffffffffffffffff811115613b2e57613b2d6123dd565b5b613b3a84828501613acc565b91505092915050565b60006fffffffffffffffffffffffffffffffff82169050919050565b613b6881613b43565b82525050565b600060a082019050613b83600083018861272c565b613b9060208301876126cd565b613b9d604083018661260f565b613baa6060830185613b5f565b8181036080830152613bbc81846139ad565b90509695505050505050565b7f416464726573733a2064656c65676174652063616c6c20746f206e6f6e2d636f60008201527f6e74726163740000000000000000000000000000000000000000000000000000602082015250565b6000613c24602683612638565b9150613c2f82613bc8565b604082019050919050565b60006020820190508181036000830152613c5381613c17565b9050919050565b600081905092915050565b6000613c7082613991565b613c7a8185613c5a565b9350613c8a818560208601612649565b80840191505092915050565b6000613ca28284613c65565b915081905092915050565b60006020820190508181036000830152613cc78184612684565b90509291505056fe416464726573733a206c6f772d6c6576656c2064656c65676174652063616c6c206661696c6564a2646970667358221220c72739c1e9eb183697d63be155786a403b70ea9f8da5fa7cc3bc5abb2b4b809a64736f6c63430008100033",
    "linkReferences": {},
    "deployedLinkReferences": {}
}